:030000000204C433
:0C04C400787FE4F6D8FD75812202023931
:10042100B5E7D0C53233303200C1F5F6CE004469AC
:0D043100616E58696E004C697558696E0067
:1002390012045BD2997BFF7A04792112038F7BFF29
:100249007A04792A12038F3099FD7FC87E0012043F
:100259008CC2991204A17BFF7A04792F7D017F0159
:100269001203E0750C047BFE7A087D087F011204F5
:100279003E7BFF7A0479377D017F021203E0750C1A
:1002890002E4FBFA7D087F0212043E1200038F226A
:10029900E52260C2FB7A00750C027D0D7F02120413
:0802A9003EAF221204E480AE16
:10048C00EF1FAC0670011E4C600A7D027CEFDCFE97
:04049C00DDFC80EC17
:0104A0002239
:10045B0075985053877F53890F438920758BFD7592
:0B046B008DFDC2ABD28ED2AFD2AC220E
:0804E4008F993099FDC29922A5
:10000300E4F5087590FFC2932097137F14FE120442
:100013008C3097FD7F147E0012048C7508012096A6
:10002300147F147E0012048C3096FD7F147E001220
:10003300048C7508052095147F147E0012048C30FF
:1000430095FD7F147E0012048C7508092094147F9B
:10005300147E0012048C3094FD7F147E0012048CF5
:1000630075080D7590FFC2922097147F147E0012BD
:10007300048C3097FD7F147E0012048C75080220D7
:1000830096147F147E0012048C3096FD7F147E003C
:1000930012048C7508062095147F147E0012048CBC
:1000A3003095FD7F147E0012048C75080A20941489
:1000B3007F147E0012048C3094FD7F147E001204A2
:1000C3008C75080E7590FFC2912097147F147E00E3
:1000D30012048C3097FD7F147E0012048C75080384
:1000E3002096147F147E0012048C3096FD7F147EBC
:1000F3000012048C7508072095147F147E001204E7
:100103008C3095FD7F147E0012048C75080B2094AF
:10011300147F147E0012048C3094FD7F147E001231
:10012300048C75080F7590FFC2902097147F147E7E
:100133000012048C3097FD7F147E0012048C750826
:10014300042096147F147E0012048C3096FD7F14D5
:100153007E0012048C7508082095147F147E00120B
:10016300048C3095FD7F147E0012048C75080C20DE
:1001730094147F147E0012048C3094FD7F147E004F
:0801830012048C750810AF088E
:01018B002251
:0604B500C2A58F80D2A752
:0804BB007F027EEFDEFEDFFC94
:0104C3002216
:0A04D000C2A61204B5C2A70204BBC5
:10040300CFCDCFCECCCE1201CB7C007D0A1201CB57
:04041300ED2430FFA5
:0A041700D2A61204B5C2A70204BB6E
:10047600AE07BE0104ED148006BE0209ED243F441A
:0604860080FF1204D022E9
:1004A1007F381204D07F0C1204D07F061204D07F53
:0404B100010204D070
:0A04DA00AC03120476AF040204170D
:0603E0008B088A09890A5E
:1003E600120476E4FDAB08AA09A90A8D827583007A
:0C03F60012018CFF60061204170D80E954
:0104020022D7
:0C035C007F0AEA24FFFDE434FFFC7E0071
:080368008E0D8F0E8C0F8D101D
:100370007F017E00E4FBEBC39510E50F6480F87409
:0E0380008098500AAC0DAD0E1201B90B80E84A
:01038E00224C
:04043E008A0A8B0B90
:10044200120476AA0CEAD39400400D12035CAC0AA3
:08045200AD0B1204031A80ED4A
:01045A00227F
:1002B100120476C3EA64809480400B7F2B120417EA
:1002C1008A168B17800E7F2D120417C3E49BF51736
:1002D100E49AF516AA15EAD39400400D12035CAC1A
:0902E10016AD171204031A80ED9A
:0102EA0022F1
:0402EB008A1A8B1BC5
:1002EF00120476AA1CEAD3940040297F1012035EF1
:1002FF00AC1AAD1BCFCDCFCECCCE1201CBEF540F5E
:10030F00FEC3940AEE5004243080022437FF1204F7
:04031F00171A80D158
:0103230022B7
:040324008A1F8B2081
:10032800120476AA21EAD394004028EA24FFFDE4C7
:1003380034FFFC7F027E00120368AC1FAD20CFCDD6
:10034800CFCECCCE1201CBEF54012430FF120417CC
:030358001A80D236
:01035B00227F
:10018C00BB010CE58229F582E5833AF583E0225028
:10019C0006E92582F8E622BBFE06E92582F8E22272
:0D01AC00E58229F582E5833AF583E493228C
:1001B900EF8DF0A4A8F0CF8CF0A428CE8DF0A42E5A
:0201C900FE2214
:1001CB00BC000BBE0029EF8DF084FFADF022E4CC18
:1001DB00F875F008EF2FFFEE33FEEC33FCEE9DECE1
:1001EB00984005FCEE9DFE0FD5F0E9E4CEFD22ED27
:1001FB00F8F5F0EE8420D21CFEADF075F008EF2F71
:10020B00FFED33FD4007985006D5F0F222C398FD61
:05021B000FD5F0EA22FE
:10038F00120220601CFF09E970010AC0E0EAC0E018
:10039F00EBC0E01203B9D0E0FBD0E0FAD0E0F98077
:0A03AF00DF7F0A1203B9E4FEFF220B
:10022000BB010689828A83E0225002E722BBFE02DC
:09023000E32289828A83E493220F
:1003B900EFB40A07740D1203C4740A309811A8998E
:1003C900B8130CC2983098FDA899C298B811F630A4
:0703D90099FDC299F599227C
:00000001FF
