:0300000002017B7F
:0C017B00787FE4F6D8FD7581360201C2E1
:10048F00011700010900010B00010800010A00C15A
:01049F00005C
:1002070012002664537056C28CC2A99000021200D5
:100217003F24D0FF90000312003F24D0FEEF75F07B
:100227000AA42EF50990000512003F24D0FF900084
:100237000612003F24D0FEEF75F00AA42EF50B90AE
:10024700000812003F24D0FF90000912003F24D07D
:0D025700FEEF75F00AA42EF508D28CD2A996
:010264002277
:10042F00E4FFFE740C2FF8E6F5993099FDC2990F91
:0A043F00BF00010EEF640B4E70E9E0
:010449002290
:1000D30012047B1204A112044AE50975F00A842470
:1000E30030FBE433FA7525017D017F01120412E52B
:1000F3000975F00A84E5F02430FBE433FA75250131
:100103007D027F011204127B3A7D037F011204CB2F
:10011300E50B75F00A842430FBE433FA7525017D81
:10012300047F01120412E50B75F00A84E5F0243014
:10013300FBE433FA7525017D057F011204127B3A36
:100143007D067F011204CBE50875F00A842430FB99
:10015300E433FA7525017D077F01120412E5087562
:10016300F00A84E5F02430FBE433FA7525017D08B9
:080173007F011204120200DCFE
:03000B0002036786
:10036700C0E0C0D0758C3C758AB0050AE50AB414A4
:1003770021750A000508E508B43C17750800050B48
:10038700E50BB43C0D750B000509E509B4180375B9
:070397000900D0D0D0E032D4
:0300230002026571
:10026500C0E0C0F0C083C082C0D075D000C000C05F
:1002750001C002C003C006C007309824C298AF175A
:100285000517740C2FF8A699740B2517F8E6B40A10
:100295000F12042F7517007B007A00790C120207E4
:1002A500D007D006D003D002D001D000D0D0D08264
:0702B500D083D0F0D0E0324D
:10000E00EF1FAC0670011E4C600A7D027CEFDCFE19
:04001E00DDFC80EC99
:0100220022BB
:10044A0075985053877F53890F438920758BFD75A3
:0B045A008DFDC2ABD28ED2AFD2AC221F
:080003008F993099FDC299228A
:1004A1005389F0438901758C3C758AB0C28CC2A90D
:0104B1002228
:0604B200C2A58F80D2A755
:0804B8007F027EEFDEFEDFFC97
:0104C0002219
:0A04C100C2A61204B2C2A70204B8DA
:1003F400CFCDCFCECCCE12007E7C007D0A12007E03
:04040400ED2430FFB4
:0A040800D2A61204B2C2A70204B883
:10046500AE07BE0104ED148006BE0209ED243F442B
:0604750080FF1204C12209
:10047B007F381204C17F0C1204C17F061204C17FA6
:04048B00010204C1A5
:0A04CB00AC03120465AF040204083C
:0603D1008B348A358936E9
:1003D700120465E4FDAB34AA35A9368D8275830016
:0C03E70012003FFF60061204080D80E9C0
:0103F30022E7
:0C039E007F0AEA24FFFDE434FFFC7E002F
:0803AA008E268F278C288D2977
:1003B2007F017E00E4FBEBC39529E5286480F87495
:0E03C2008098500AAC26AD2712006C0B80E824
:0103D000220A
:040412008A238B248A
:10041600120465AA25EAD39400400D12039EAC236C
:08042600AD241203F41A80ED6D
:01042E0022AB
:1002BC00120465C3EA64809480400B7F2B120408FF
:1002CC008A1D8B1E800E7F2D120408C3E49BF51E25
:1002DC00E49AF51DAA1CEAD39400400D12039EACBF
:0902EC001DAD1E1203F41A80ED91
:0102F50022E6
:0402F6008A2C8B2D96
:1002FA00120465AA2EEAD3940040297F101203A0A3
:10030A00AC2CAD2DCFCDCFCECCCE12007EEF540F7C
:10031A00FEC3940AEE5004243080022437FF1204EC
:04032A00081A80D15C
:01032E0022AC
:04032F008A318B3252
:10033300120465AA33EAD394004028EA24FFFDE4BB
:1003430034FFFC7F027E001203AAAC31AD32CFCD65
:10035300CFCECCCE12007EEF54012430FF1204081E
:030363001A80D22B
:010366002274
:100187000200D3E493A3F8E493A34003F68001F2BB
:1001970008DFF48029E493A3F85407240CC8C33379
:1001A700C4540F4420C8834004F456800146F6DF48
:1001B700E4800B010204081020408090048FE47E45
:1001C700019360BCA3FF543F30E509541FFEE4933D
:1001D700A360010ECF54C025E060A840B8E493A304
:1001E700FAE493A3F8E493A3C8C582C8CAC583CA2F
:1001F700F0A3C8C582C8CAC583CADFE9DEE780BEE7
:0104A000005B
:10002600BB010689828A83E0225002E722BBFE02D8
:09003600E32289828A83E493220B
:10003F00BB010CE58229F582E5833AF583E0225076
:10004F0006E92582F8E622BBFE06E92582F8E222C0
:0D005F00E58229F582E5833AF583E49322DA
:10006C00EF8DF0A4A8F0CF8CF0A428CE8DF0A42EA8
:02007C00FE2262
:10007E00BC000BBE0029EF8DF084FFADF022E4CC66
:10008E00F875F008EF2FFFEE33FEEC33FCEE9DEC2F
:10009E00984005FCEE9DFE0FD5F0E9E4CEFD22ED75
:1000AE00F8F5F0EE8420D21CFEADF075F008EF2FBF
:1000BE00FFED33FD4007985006D5F0F222C398FDB0
:0500CE000FD5F0EA224D
:00000001FF
